:020000020000FC
:1000000008E00EBF0FE50DBF0FEF04BB01BB41E0E1
:1000100050E060E071E0742F052F0295007F700FB3
:10002000460F4F704A3018F04A5001E0500F062F2B
:1000300002950F70500F5A3018F041E050E070E018
:10004000672F87E107EF02BB042F0E94400005BB2A
:100050000E9436000BEF02BB052F0E94400005BB3B
:100060000E9436008A9571F70C940B0011E025E18F
:100070003FEF3A95F1F72A95D9F71A95C1F7089508
:10008000003011F40FE30895013011F406E00895F3
:10009000023011F40BE50895033011F40FE40895D4
:1000A000043011F406E60895053011F40DE60895C4
:1000B000063011F40DE70895073011F407E00895B4
:1000C000083011F40FE70895093009F40FE6089598
:00000001FF
