:040000000C94590003
:100004000C9400000C9400000C9400000C9400006C
:100014000C9400000C9400000C9400000C9400005C
:100024000C9400000C9400000C9400000C9400004C
:100034000C9400000C9400000C9400000C9400003C
:100044000C9400000C9400000C9400000C9400002C
:100054001027E80364000A000100001000011000EA
:10006400010054656D70203A004300737461746537
:100074003A20310073746174653A203200737461FC
:1000840074653A20330080C00700600266000200F5
:1000940067026D00090069026F00090072027800AE
:1000A40009007B028100020084028A000000F894A7
:1000B400EE27ECBBF1E0FBBFEBBFE5BFF8E1F1BD20
:1000C400E1BD8DE0A2E0BB27ED938A95E9F780E0DE
:1000D40098E0A0E6ED930197E9F7ECE8F0E085916C
:1000E4009591009761F0A591B59105901590BF0188
:1000F400F00105900D920197E1F7FB01F0CFEFE5D8
:10010400EDBFE8E0EEBFC0E6D2E00C94FD00BA9388
:10011400AA93E881E05D77C1BA93AA930E94B803D9
:1001240001E010E0AE81BF81EAE0F0E00E949703B5
:10013400DF01EDDF3E2FAE81BF81EAE0F0E00E94F7
:100144009C03DF01E4DF2E2FEC81EA93A02F50D132
:10015400A32F67D1EC81EF5FEA93A02F49D1A22F9F
:1001640060D10E94BD0328960895AA93E881E064B3
:10017400E7B98BE18A95F1F7369A349BFECF349A2E
:10018400E4B1F5B1A0C1BA93AA931A930A93EA8190
:10019400FB81E130A0E0FA0719F408E512E00DC094
:1001A400E230A0E0FA0719F400E911E006C0E330F8
:1001B400A0E0FA0711F408EC10E0EFE0E1BBE9E09D
:1001C4000E946702E8E00E946702ECE00E94670276
:1001D400E4E00E946702E6E00E946702E2E00E9417
:1001E4006702E3E00E946702E1E00E94670219816E
:1001F4000881249608952497E8ECE883E0E0E983F5
:10020400EA83EB8321E030E050E040E0389AE5E80F
:10021400E6B9E0E0E0BFA0E12AD10E946B02E2E08F
:100224000E947002A0E6B2E011D1ECE00E947002DC
:10023400AFEDF7D0EDE00E947002A7E6B2E006D180
:10024400A8EEB3E00E948702A0E08FDF8F010E9436
:100254007F030E94F702A6E9BBE58AEF9EE30E94B2
:1002640025030E94C0028F011A930A93A9E0B0E00B
:1002740053DFE1E0F0E0E217F307C9F40E946B02F8
:10028400A9E6B2E0E3D00432E0E01E072CF022E05D
:1002940030E040E051E00AC00F30E0E01E0724F4F3
:1002A40023E030E041E001C040E050E025C0E2E05E
:1002B400F0E0E217F30789F40E946B02A2E7B2E0D0
:1002C400C5D00931E0E01E072CF421E030E040E025
:1002D40050E002C040E051E00FC00E946B02ABE767
:1002E400B2E0B4D00F31E0E01E0724F021E030E0AA
:1002F40040E001C041E050E0E0E0E1BB503009F4EF
:1003040045C0EA81FB81309749F40432E0E01E07DE
:1003140024F0E1E0F0E0EA83FB8335C0E130A0E0C3
:10032400FA0781F40931E0E01E071CF4E0E0EA83F7
:10033400EB830932E0E01E0724F0E2E0F0E0EA8318
:10034400FB8321C0E230A0E0FA0789F40332E0E045
:100354001E0724F4E1E0F0E0EA83FB830E32E0E0E0
:100364001E0724F0E3E0F0E0EA83FB830CC0E330F3
:10037400A0E0FA0741F40832E0E01E0724F4E2E0CA
:10038400F0E0EA83FB83AA81BB81FDDE403071F09B
:10039400E0EFE1BBE0E90E947402E0EC0E94740229
:1003A400E0E60E947402E0E30E9474024DCFFFCFA6
:1003B400AA93E5B3EF70AE2FE881E07FEA2BE5BBAB
:1003C4008DE08A95F1F7AA9A8DE08A95F1F7AA98BB
:1003D4008DE08A95F1F777C0AA93A881E9DFE881D7
:1003E400E295E883A881E4DF85E88A95F1F76BC09C
:1003F400AA93E881F0E0EC57FD4FE081A981AE0FAC
:10040400EBDF5980488022960895A2E00E94790289
:10041400ACE0E2DFA1E00E947902E0E04E2E5E2E25
:100424000895AA93A881AA3011F0571448F0E0E087
:10043400EA934394A42DDCDFA881AA3009F443C0D5
:100444005394A89AA881C8DFA8983DC0BA93AA93E8
:100454001A93A981BA81ED91A983BA831E2FE03042
:1004640019F0A12FDEDFF5CF188123960895AA9302
:10047400E4B3E06FE4BBA29AA09AA19AAA98A898C0
:10048400A9987880E881E058E0938602E881E054F6
:10049400E0938702A4E1B0E00E9487020E947F02F9
:1004A4000E947F020E947F02A0E282DF88EC90E03B
:1004B4000197F1F7A8E290DFA4E08EDFA5E88CDFD6
:1004C400A6E08ADFA2DF21960895E2BBD8010C944E
:1004D4008702E3E0EA93A0E00C94FA01EA93A1E036
:1004E4000C94FA01E2BBA881B9810C9487020E94A2
:1004F400EE01A3E0B0E00C948702A0E30E94DA01CD
:1005040088EC90E00197F1F70895109639F080EDAA
:1005140097E00197F1F7A8951197C9F70895552326
:1005240042F4503811F4E0FF04C03196691F791F7A
:100534006BF050E8572711F45F9373C05F3F31F0BD
:10054400660F000C57956795752F08955F930020EB
:100554000AF073C06CC050E8192E1522880F991F39
:100564009527550F879550E8072E0522660F771FAC
:100574007527550F67950895689401C0E8945F93B3
:10058400F2DF703818F07F3F08F44BC056E1571B78
:10059400AAF4519558300EF4593030F0EFEFFFEFD4
:1005A4006FEF7FE777F91AC077275523B9F0EE0F7D
:1005B400FF1F661F771F5A95D1F710C07727583051
:1005C40028F0EF2FF62F672F5850F9CF552331F02D
:1005D40076956795F795E7955A95D1F700200AF433
:1005E40084D05F910895689401C0E8943097604086
:1005F4007040B1F0002426F0772312F4009475D0F3
:10060400172E7EE1112032F07A95EE0FFF1F661F40
:10061400111CF9CFEF2FF62F612D5F938ADF5F91C5
:100624000895EE27FF27662777275F910895EFEF58
:10063400FFEF6FE77FEF5F910895EFEFFFEF6FE755
:100644007FE75F9108955F9386DF703851F39038A8
:1006540041F301240894791F23F41CF300203AF396
:10066400ECCF0F921F932F933F934F931127222781
:100674009927689FA0018F9F302D410D591F6B9FB3
:10068400300D411D591F8E9F27D0BF9F25D06A9FD3
:1006940023D0BE9F1DD0AF9F1BD0AE9F110D291F2D
:1006A400391F491F591FE32FF42F652F522F4F91E4
:1006B4003F912F911F910F9066232AF0550FEE1F43
:1006C400FF1F661F02C073954BF229DF5F910895E7
:1006D400100D211D391F02C0200D311D491F591F46
:1006E4000895F195E195F0400895F0956095709521
:1006F400E195FF4F6F4F7F4F08956F2F660F660B85
:10070400762F08950024112490E1AA0FBB1F001C2A
:10071400111C0E1A1F0A18F40E0E1F1E01C0A16030
:100724009A9599F7FD01D001089512D0EBDF0EF4EC
:10073400D8DF0895E894B7FF04C0A095B09511964A
:100744006894F7FDCEDFDEDFFD010EF4CADF089505
:10075400E894F7FF02C0C5DF6894B7FF06C0A09510
:10076400B095119600F8039400FA08953A932A93E9
:100774001A930A9308953B812A8119810881089567
:00000001FF
