:0A0000000C9430000C9400000C94E6
:10000A0000000C947F000C9400000C9400000C94E7
:10001A0000000C9460000C9400000C9400000C94F6
:10002A0000000C9400000C9400000C9400000C9446
:10003A0000000C9400000C9400000C9400000C9436
:10004A0000000C9400000C94000000000000040062
:10005A00040054000000F894EE27ECBBF1E0FBBF6B
:10006A00EBBFE5BFF8E1F1BDE1BD8DE0A2E0BB2742
:10007A00ED938A95E9F780E098E0A0E6ED93019781
:10008A00E9F7E8E5F0E085919591009761F0A5918F
:10009A00B59105901590BF01F00105900D92019759
:1000AA00E1F7FB01F0CFEFE5EDBFE8E0EEBFC0E618
:1000BA00D2E00C9488000A921A929A93AA93BA935D
:1000CA00EA93FA93EFB7EA93042C052849F4F3016B
:1000DA0031963F01D301EAE0F0E00E94B7003F0108
:1000EA00E991EFBFF991E991B991A9919991199083
:1000FA0009901895EA93EFB7EA93E1E04E26E99161
:10010A00EFBFE9911895EFEFE4BBE0E0EABBEBB78C
:10011A00E06EEBBFEAE0E5BFE0E0E4BFE0EEEABF95
:10012A00ECE0EEBDEAE7EBBDE2E1EABDE9BF7894B7
:10013A0065BAFECFFFCFF195E195F040089500240E
:10014A00112490E1AA0FBB1F001C111C0E1A1F0AD2
:10015A0018F40E0E1F1E01C0A1609A9599F7FD01B1
:10016A00D0010895E894B7FF04C0A095B095119600
:10017A006894F7FDE0DFE3DFFD010EF4DCDF0895AC
:00000001FF
