:0A0000000C9440000C9400000C94D6
:10000A0000000C9400000C9400000C9400000C9466
:10001A0000000C9400000C9400000C9400000C9456
:10002A0000000C9400000C9400000C9400000C9446
:10003A0000000C9400000C9400000C9400000C9436
:10004A0000000C9400000C9400001027E8036400E0
:10005A000A000100001000011000010048756D69D6
:10006A00646974793A2564202525200080C002003D
:10007A00600276000000F894EE27ECBBF1E0FBBFCB
:10008A00EBBFE5BFF8E1F1BDE1BD8DE0A2E0BB2722
:10009A00ED938A95E9F780E098E0A0E6ED93019761
:1000AA00E9F7E8E7F0E085919591009761F0A5916D
:1000BA00B59105901590BF01F00105900D92019739
:1000CA00E1F7FB01F0CFEFE5EDBFE8E0EEBFC0E6F8
:1000DA00D2E00C94A500E1E0E1BB9098A4E6B0E080
:1000EA000E947803909A0895E0E0E1BB8099FECFE0
:1000FA00809BFECF8099FECF08950E94990320E04D
:10010A0030E000E010E00830E0E01E07A4F4809B35
:10011A00FECF85E88A95F1F7809B06C0F901EE0FBC
:10012A00FF1FE1609F0102C0220F331F8099FECF9B
:10013A000F5F1F4FE8CFE22F0E94A0032496089575
:10014A00609710E000E030E020E050E0A0E1A2D0AB
:10015A00E1E0E7BBC098A8EEB3E00E947803BBDFFA
:10016A00C3DFCBDF3E2FC9DF5E2FC7DF0E2FC5DF10
:10017A002E2FC3DF1E2FA02FBB27EE27A20FBE1FD5
:10018A00EE27A30FBE1FEE27A50FBE1FE12FF0E03B
:10019A00EA17FB0721F7FE01FA93EA93E6E6F0E095
:1001AA00FA93EA93E32FFF27662777270E949203A1
:1001BA0084E00E94F1022896E0E0EA93A0E02BD0C6
:1001CA00DE0157D0383210F03D3310F0C09A01C02A
:1001DA00C098C5CFFFCFAA93E5B3EF70AE2FE881E1
:1001EA00E07FEA2BE5BB8DE08A95F1F7AA9A8DE0CC
:1001FA008A95F1F7AA988DE08A95F1F777C0AA93C4
:10020A00A881E9DFE881E295E883A881E4DF85E84F
:10021A008A95F1F76BC0AA93E881F0E0E05AFD4FA6
:10022A00E081A981AE0FEBDF5980488022960895BC
:10023A00A2E00E943E03ACE0E2DFA1E00E943E039E
:10024A00E0E04E2E5E2E0895AA93A881AA3011F0FE
:10025A00571448F0E0E0EA934394A42DDCDFA88128
:10026A00AA3009F443C05394A89AA881C8DFA89871
:10027A003DC0BA93AA931A93A981BA81ED91A98331
:10028A00BA831E2FE03019F0A12FDEDFF5CF1881D7
:10029A0023960895AA93E4B3E06FE4BBA29AA09AC6
:1002AA00A19AAA98A898A9987880E881E058E0933A
:1002BA006202E881E054E0936302A4E1B0E00E94A4
:1002CA0078030E9444030E9444030E944403A0E26C
:1002DA0082DF88EC90E00197F1F7A8E290DFA4E0D2
:1002EA008EDFA5E88CDFA6E08ADFA2DF21960895DB
:1002FA00BA93AA931A930A93AA81BB8112960E946F
:10030A008A03309759F1AA81BB8114960E948A0305
:10031A008F01309761F00230E0E01E0798F0F80193
:10032A0031978F01AA81BB811496ED93FC93AA8120
:10033A00BB811296ED91FD913196FE93EE93319722
:10034A00AC81A083AA81BB810E948A03FF232AF081
:10035A00ED91FD913196FE93EE9306C0AA81BB8181
:10036A00EFEFFFEFED93FC9319810881259608952D
:10037A00BA93AA9326970E94970310E0AC85BD858D
:10038A00E0E0F0E0ED93FC93EA89FB893196EA8B91
:10039A00FB8B3197E4912E2FE03009F415C1E12F40
:1003AA00E03039F4253211F411E002C00E944C0306
:1003BA000AC1E130A9F4253219F40E944C0302C1A2
:1003CA0012E040E000E02D3211F401E0FCC02B32D3
:1003DA0011F44BE2F8C0203211F440E2F4C002C03A
:1003EA00E23039F450E013E0203311F40068EBC036
:1003FA0003C0E33009F0E7C0203310F02A3308F0D5
:10040A0007C0AAE05A9F502DE22FE0535E0FDBC0CF
:10041A00E22FE33649F40E945303E889F989A4815B
:10042A00AA930E945903CEC0E33741F40E945303B2
:10043A000E945F030E9425031E2F0AC0E03761F461
:10044A000E9453030E945F030E9431031E2F08601B
:10045A0002600F7730E034C0E43611F0E93611F467
:10046A00046002C0E53731F4E4E5F0E0EE83FF838F
:10047A0015E00CC0E83511F4086003C0E83709F04C
:10048A00A1C0EEE5F0E0EE83FF8314E002FF14C0A2
:10049A000E9453030E946903AB85AA233AF4EA85B2
:1004AA00FB850E948603EA87FB874DE2403011F004
:1004BA001F5F01C00B7F04C00E9453030E9469039F
:1004CA0000FD11C0151778F407FF08C002FF04C029
:1004DA000B7F242F115001C020E301C020E20E94AB
:1004EA004C035150EFCF312F01FF17C03030A1F02C
:1004FA0003FF06C0EE81FF812591EE83FF8305C0CD
:10050A00AE81BF812D91AE83BF830E944C035030D0
:10051A0009F051503150EACF4BC020E3EE81FF8100
:10052A000E948E03E887F987EE81FF813296EE8377
:10053A00FF83E885F985AA85BB85AE17BF0750F00A
:10054A002F5FA885B985EA85FB85EA1BFB0BEA873D
:10055A00FB87EFCF2A3328F003FF02C0295F01C0CF
:10056A00295D04FD1AC0213320F4A885B9851197A5
:10057A0009F409C0531710F000FF01C013C020E2AC
:10058A0007FF0BC020E3006102FF07C00B7F4A93FD
:10059A000E945903503009F051500E944C035030C8
:1005AA0009F051503150A885B985129708F0B5CF96
:1005BA0000FF08C0503031F05150E0E2EA930E9447
:1005CA005903F8CF10E0E0CEAC85BD850E948A03BE
:1005DA000E949E0364960895FF92F82E26970E9421
:1005EA0099030E947103309719F4EFEFFFEF23C0CC
:1005FA00DE0116960E9482038D010E947103EE832A
:10060A00FF83E0E0E887E987DE011A960E94820309
:10061A000E948A03FA93EA931A930A93EDE7F1E0A8
:10062A00FA93EA93DE011A96A3DE9F01AE81BF8197
:10063A00E0E0EC93F9010E94A0032A96FF90089546
:10064A00BA93AA93A991B991EE27FF276D916623D0
:10065A0011F03196FBCF0895BA93AA93AA27BB2724
:10066A00E991F9910590002011F01196FBCFFD0157
:10067A0008950E940401A3E0B0E00C947803A0E37B
:10068A000E94F00088EC90E00197F1F708952A9310
:10069A00AD85BE85EF85F88909950895E889F989B8
:1006AA003497E88BF98B0895AD85BE85EF85F88977
:1006BA0009950895A889B98914960E948A03EE8338
:1006CA00FF83AE81BF810895A889B98914960E94D3
:1006DA008A03EA87FB870895DE011C960E9482033B
:1006EA000E948A030895109639F080ED97E00197E9
:1006FA00F1F7A8951197C9F708950024AF0DB01D19
:10070A000895F195E195F0400895ED91FC911197C6
:10071A0008950590F491E02D08957A936A93FA93D7
:10072A00EA9308955A934A933A932A931A930A9307
:10073A0008955D814C813B812A8119810881089540
:00000001FF
